:10000000B5C00000D0C00000CEC00000CCC00000D1
:10001000CAC00000C8C00000C6C00000C4C00000C4
:10002000C2C00000C0C000000C946B0A0C94840A8B
:10003000BAC000000C94A80BB6C00000B4C0000009
:10004000B2C00000B0C00000AEC00000ACC00000F4
:10005000AAC00000A8C00000A6C00000A4C0000004
:10006000B4C70000A0C000009EC000009CC00000FB
:100070009AC0000098C0000096C0000094C0000024
:1000800092C0000090C000008EC000008CC0000034
:100090008AC0000088C0000086C0000084C0000044
:1000A00082C0000080C000007EC000007CC0000054
:1000B0007AC0000078C000000C94F40A74C00000FC
:1000C00072C0000070C000006EC000006CC0000074
:1000D0006AC0000068C0000066C0000064C0000084
:1000E00062C0000060C000005EC000005CC0000094
:1000F0005AC0000058C0000056C0000054C00000A4
:1001000052C0000050C000004EC000004CC00000B3
:100110004AC0000048C0000046C000000C946409BA
:1001200042C0000040C000003EC000003CC00000D3
:100130003AC0000038C0000036C0000034C00000E3
:1001400032C0000030C000002EC000002CC00000F3
:100150002AC0000028C0000026C0000024C0000003
:1001600022C0000020C000001EC0000011241FBEDD
:10017000CFEFCDBFD7E2DEBF14E2A0E0B0E2E8EE01
:10018000F9E202C005900D92A833B107D9F724E235
:10019000A8E3B4E201C01D92A038B207E1F70E94C3
:1001A000B70D0C94F2142CCFCF93DF9300D0CDB7C2
:1001B000DEB7B1D289839A8342E0BE016F5F7F4F81
:1001C00080E726D50F900F90DF91CF910895CF93C0
:1001D000DF9300D0CDB7DEB780D389839A8342E026
:1001E000BE016F5F7F4F82E713D50F900F90DF91B5
:1001F000CF910895CF93DF931F92CDB7DEB786E0FE
:10020000898341E0BE016F5F7F4F8DE701D50F907D
:10021000DF91CF910895CF93DF9300D0CDB7DEB7B4
:1002200042E0BE016F5F7F4F80E772D589819A817E
:100230000F900F90DF91CF910895CF93DF9300D06F
:10024000CDB7DEB742E0BE016F5F7F4F82E760D57A
:1002500089819A810F900F90DF91CF910895CF936C
:10026000DF9300D0CDB7DEB742E0BE016F5F7F4FB6
:1002700084E74ED549815A8127E030E280E02C5F47
:100280003F4FF9013497608171816417750711F050
:100290008F5FF5CF0F900F90DF91CF910895CF939F
:1002A000DF9300D0CDB7DEB741E06DE474E286E7BE
:1002B0002FD542E0BE016F5F7F4F8BE729D52981A3
:1002C0003A81A0E1BEE00E94041060933C24709348
:1002D0003D2480933E2490933F2442E0BE016F5F13
:1002E0007F4F89E715D529813A81A0E1BEE00E94C0
:1002F0000410609338247093392480933A249093A7
:100300003B240F900F90DF91CF9108958F929F9291
:10031000AF92BF92CF92DF92EF92FF920F931F9313
:10032000CF93DF9300D000D0CDB7DEB786DF8C014E
:10033000E0904D2494DFF82E6EDF6C017EDF21EF1C
:10034000C21A2AE0D20A2BEDC21625E0D20628F006
:100350000F964F9710F410E048C042E0BE016D5F69
:100360007F4F8AE0D5D48B809C8042E0BE016F5FD6
:100370007F4F8EE0CDD4A980BA804DDF8B839C83E4
:100380005CDF6C019401AFE5B0E00E94041024E64C
:1003900030E040E050E00E94E80F8B819C81A0E0BB
:1003A000B0E0281739074A075B070CF0C7C0B50152
:1003B000BB0C880B990B24E130E040E050E00E9438
:1003C000E80FC601D7FE03C0919581959109092ECA
:1003D000000CAA0BBB0B82179307A407B5070CF000
:1003E000ADC084E680934D2412E080914D24E81640
:1003F00029F041E06DE474E286E70AD46091382484
:100400007091392480913A2490913B2420E1822EEE
:100410002EE0922EA12CB12CA50194010E94E80F90
:100420002B833C8342E0BE016D5F7F4F89E7F0D3B1
:100430001F1509F4F5C084E0189FB0011124695F0D
:100440007F4D42E084E7E4D324E0F2126AC0123028
:1004500009F067C042E0BE016F5F7F4F87E758D465
:1004600089819A81019689839A8342E0BE016F5FF8
:100470007F4F87E7CDD342E0BE016D5F7F4F82E1C2
:1004800047D42B813C81A0E1BEE00E94041020E90A
:1004900031E040E050E00E94C60F80910620A4E6C3
:1004A000B0E0A81BB10987FDB3950E94231024E694
:1004B00030E040E050E00E94C60F80913C249091D3
:1004C0003D24A0913E24B0913F24BC01CD01621B8C
:1004D000730B840B950B60933C2470933D248093A5
:1004E0003E2490933F24A50194010E94E80F2B83A2
:1004F0003C8342E0BE016D5F7F4F8BE789D38091E3
:100500003C2490913D24A0913E24B0913F248093BF
:10051000382490933924A0933A24B0933B2484E662
:100520000AC0143009F07CC080914D2490910620BF
:1005300089170CF075C08093062072C0A801012EA7
:10054000000C660B770B8091382490913924A09190
:100550003A24B0913B2480903C2490903D24A0907C
:100560003E24B0903F24841B950BA60BB70B1016AE
:1005700011063CF5B7FD09C08093382490933924C7
:10058000A0933A24B0933B2408C0109238241092D0
:10059000392410923A2410923B242091382430912F
:1005A000392440913A2450913B24A4E6B0E00E94C3
:1005B0001910A50194010E94C60F20934D2411E04B
:1005C00014CF8093382490933924A0933A24B09385
:1005D0003B2488169906AA06BB0644F48092382468
:1005E00090923924A0923A24B0923B24209138244E
:1005F0003091392440913A2450913B24A4E6B0E054
:100600000E941910A50194010E94C60F24361CF403
:1006100020934D2403C083E680934D2414E0E5CE5F
:100620002496CDBFDEBFDF91CF911F910F91FF9038
:10063000EF90DF90CF90BF90AF909F908F900895F4
:10064000B3DDC5DD63CECF93DF931F92CDB7DEB7A9
:100650008FB78983F89489810F90DF91CF910895A6
:10066000F2DFE0E0F2E09081946090838FBF089524
:100670001F93CF93DF9300D000D0CDB7DEB7182FF4
:10068000AE014F5F5F4F61E080E092E0CCD6103169
:1006900038F0198280EF810F880F880F880F06C00D
:1006A00083E1898328E0129FC00111248A838B8112
:1006B000807F8B83AE014F5F5F4F61E080E092E00F
:1006C00095D62496CDBFDEBFDF91CF911F910895BF
:1006D000CF93DF93CDB7DEB72697CDBFDEBFBE0188
:1006E0006F5F7F4F80E092E060D689819A819F782A
:1006F0009A8396E09C83817E806189831B82BE0100
:100700006F5F7F4F80E092E00DD62696CDBFDEBFB3
:10071000DF91CF910895FF920F931F93CF93DF93B3
:10072000CDB7DEB72A97CDBFDEBFBE016F5F7F4F6B
:1007300080E092E03AD689819A819F789A8396E008
:100740009C83817E89831B82BE016F5F7F4F80E027
:1007500092E0E8D5AE01495F5F4F61E080E092E052
:1007600062D681E08F8380E188878985807F898751
:10077000AE01495F5F4F61E080E092E037D680E0F4
:1007800092E05DD589E1F82E00E010E069DF80910C
:100790000602982F917080FFFACF9093060253DFE4
:1007A00020912402309125028FBF020F131FFA946B
:1007B000F110ECCFC80169E170E00E949F0F8B013E
:1007C00080E092E058D59801A6E6BCE00E940410B3
:1007D00028EE33E040E050E00E94C60FC9012A969F
:1007E000CDBFDEBFDF91CF911F910F91FF90089594
:1007F000CF9384E0809325062FEF87EA91E621507E
:1008000080409040E1F700C0000062DF80E030DF10
:1008100080E092E014D5E0911B20F0911C20108222
:100820001182C9E11DDF80910602982F917080FF2F
:10083000FACF9093060207DF20912402309125021F
:100840008FBFE0911B20F0911C2080819181820F4D
:10085000931F80839183C15029F7E0911B20F09171
:100860001C208081918169E170E00E94B30F608358
:10087000718381E0FDDEE0911B20F0911C2012824B
:100880001382C9E1EDDE80910602982F917080FFFE
:10089000FACF90930602D7DE2091240230912502F0
:1008A0008FBFE0911B20F0911C2082819381820FE9
:1008B000931F82839383C15029F78281938169E1D9
:1008C00070E00E94B30F6283738380E092E0D3D420
:1008D00084E080932606CF910895FF920F931F9393
:1008E000CF93DF93F5DE80E0C3DE80E092E0A7D413
:1008F00019E1C0E0D0E0B4DE80910602982F91703B
:1009000080FFFACF909306029EDE20912402309160
:1009100025028FBFC20FD31F115069F7CE0169E1C5
:1009200070E00E94B30FE0911B20F0911C208081A9
:100930009181EB01C81BD90B81E09ADE89E1F82E89
:1009400000E010E08DDE80910602982F917080FF0C
:10095000FACF9093060277DE20912402309125028F
:100960008FBF020F131FFA94F110ECCFC80169E199
:1009700070E00E94B30FE0911B20F0911C20828157
:1009800093818B01081B190B80E092E074D4DE0187
:10099000A01BB10B2EEC31E00E94131028EE33E0C7
:1009A00040E050E00E94E80FC901DF91CF911F9114
:1009B0000F91FF900895382FFC0180E090E02E2FDA
:1009C000231B261720F42191820F911DF8CF089543
:1009D000CF93DF93EC016AE0EEDF8A879B87DF919C
:1009E000CF910895CF93DF93CDB7DEB72B97CDBFCF
:1009F000DEBF8BE0EDE9F0E2DE01119601900D9291
:100A00008A95E1F740E0BE016F5F7F4F80E894E098
:100A1000D7D68111F7CF2B96CDBFDEBFDF91CF9117
:100A20000895EF92FF920F931F93CF93DF93CDB76B
:100A3000DEB72B97CDBFDEBF182F7B01042FCB0174
:100A4000C7DF20E11202C0011124906599838A83D7
:100A50001B821C8281E090E08D839E83EF82F8866A
:100A6000402F50E049875A871B8640E0BE016F5FE8
:100A70007F4F80E894E0A4D6882351F08FED90E278
:100A80009F938F930E94BA100F900F908FEF02C028
:100A9000A9DF80E02B96CDBFDEBFDF91CF911F9104
:100AA0000F91FF90EF9008952F923F924F925F9297
:100AB0006F927F928F929F92AF92BF92CF92DF926E
:100AC000EF92FF920F931F93CF93DF93CDB7DEB7D3
:100AD000A497CDBFDEBF94E0E92EF12C00E410E036
:100AE0008FEF8CA3212C312C512C66246394712C14
:100AF0003CE0832E912C4BE1A42E41E2B42E952DA7
:100B00009170492E812F8065898F0A8F1B8E1C8ED4
:100B10006D8E7E8ECC24C394D12CCC0EDD1EACE029
:100B2000A99FC00CD11C1124CF8ED8A289A29AA251
:100B30001BA241E0BE01675E7F4F80E894E040D693
:100B4000882329F08DEF90E20E94CD104AC06AE020
:100B5000C60131DFF601228533858217930769F0DC
:100B60003F932F939F938F93FF92EF92BF92AF92F9
:100B70000E94BA10CDBFDEBF16C0539491E0591247
:100B800002C0ECA210C0E1E0F0E0EC0FFD1FACE011
:100B9000A39DE00DF11D1124D6018C919081891B3C
:100BA000813460F4242C005F1F4FBFEFEB1AFB0A67
:100BB000342C0115E4E01E0709F0A1CF552089F07F
:100BC0008CE0E1E0F0E0EC0FFD1F829DE00DF11DF7
:100BD0001124A2E5B4E201900D928A95E1F78CA16F
:100BE00001C08FEFA496CDBFDEBFDF91CF911F91E3
:100BF0000F91FF90EF90DF90CF90BF90AF909F90BC
:100C00008F907F906F905F904F903F902F900895BE
:100C10000F931F93CF93DF9300D0CDB7DEB7198228
:100C20001A8290E050E09A01280F391F2F373105C2
:100C300034F08AE591E20E94CD108FEF62C0835EAE
:100C40009F4D0E94291080E090E020E030E0FC0100
:100C5000E35EFF4D4081240F311D01968E379105D3
:100C6000B1F729833A838A8180939B20898180937D
:100C70009C2000915C2410915D2409831A8380914B
:100C80009A20809353248091942090919520809372
:100C9000542490935524809196209091972080938E
:100CA0005624909357248091982090919920809376
:100CB00058249093592480912F2090913020809334
:100CC0005A2490935B2482E594E282DE80915C2436
:100CD00090915D240817190799F0809152248F5F35
:100CE0008093522480915E248F5F803409F484E0E5
:100CF00080935E244CE062E574E280915E2491DE94
:100D000080E00F900F90DF91CF911F910F91089588
:100D10009B0150E0682F70E0635E7F4DC9010C9429
:100D200029101F93CF93DF931F92CDB7DEB78FEFBC
:100D300089838BE891E29F938F930E94BA100F9062
:100D40000F9010E041E0BE016F5F7F4F812F60DFA9
:100D50001F5F1038B9F787EA91E20E94CD100F901B
:100D6000DF91CF911F9108958F929F92AF92BF9282
:100D7000CF92DF92EF92FF920F931F93CF93DF9367
:100D8000CDB7DEB76B97CDBFDEBF8DEA91E29F9303
:100D90008F930E94BA10FE0131967E0181E1E80E28
:100DA000F11C0F900F909E2E8F2E8FEF8193EE15DA
:100DB000FF05E1F700E010E0CC24C394D12C90E1D2
:100DC000A92EB12C812F8065898B0A8B1B8A1C8AE6
:100DD000CD8ADE8A9F8A888EA98EBA8E1B8E40E0CD
:100DE000B70180E894E0ECD4882349F08FED90E2DD
:100DF0009F938F930E94BA100F900F900BC0F2DD5B
:100E0000005F1F4F011584E01807E1F687EA91E2C1
:100E10000E94CD106B96CDBFDEBFDF91CF911F91A9
:100E20000F91FF90EF90DF90CF90BF90AF909F9089
:100E30008F900895EF92FF920F931F93CF93DF93BC
:100E400081EC91E20E94CD108DE1E82E80E2F82E37
:100E5000C0E0D0E00EEC11E2F70181917F011F921A
:100E60008F93DF93CF931F930F930E94BA10219615
:100E70000F900F900F900F900F900F90C038D105EA
:100E800059F785E394E2DF91CF911F910F91FF9085
:100E9000EF900C94CD10809152248F5F8093522458
:100EA00080915E248F5F803409F484E080935E2417
:100EB0004CE062E574E280915E24B3CD0F931F9302
:100EC000CF93DF93CDB7DEB72997CDBFDEBF88E0E4
:100ED000809386068E010F5F1F4F89E0F801119203
:100EE0008A95E9F780E593ECA0E0B0E089839A83E6
:100EF000AB83BC8380E589878BE391E0A0E0B0E021
:100F00008D839E83AF83B88760E483E0FCD0B80113
:100F100080E894E040D42996CDBFDEBFDF91CF9129
:100F20001F910F910895CADF83EE91E29F938F93F3
:100F30000E94BA1080E8E7E2F2E2ADE1B0E201908F
:100F40000D928A95E1F787EA91E20E94CD10ACDD1F
:100F500080935E240F900F908F3FB1F483E092E274
:100F60000E94CD1060912F207091302080E090E0A1
:100F7000F5D620E030E040E45FE356D7C3D6609377
:100F8000982070939920089580915424909155242D
:100F9000809394209093952080915624909157248B
:100FA0008093962090939720809158249091592473
:100FB000809398209093992080915A2490915B245B
:100FC00080932F209093302008951F920F920FB698
:100FD0000F9211248F93EF93FF938091C308809316
:100FE0005F2480915F2487FF02C08FEF06C0E091ED
:100FF0005F24F0E0E35EFF4D80818093C308FF91A2
:10100000EF918F910F900FBE0F901F90189568E091
:1010100083E079D080E48093C00883E08093C108A6
:101020008091C20887FF03C08091C308F9CF8FEF7A
:101030008093C3080895E0ECF8E08181118208955F
:101040008093C108089588E0809340068093450608
:10105000E0E2F6E094E09183968381838583E0E883
:10106000F6E0918396838183858340E050E060E1E0
:1010700080E496E069D040E050E060E280E496E0F1
:1010800063D043E050E060E480E496E05DD040E06F
:1010900050E060E880E496E057C0CF93DF931F9262
:1010A000CDB7DEB78FB78983F89489810F90DF9130
:1010B000CF9108958FEF809370008093710080939B
:1010C0007200809373008093740080937500809306
:1010D0007600E3DF909150009260909350008FBFB4
:1010E0008091510081FFFCCF61E080E490E0B8D1B5
:1010F000D4DF909150009E7F909350008FBF81E08D
:10110000809343000895CF93DF93C82FD62FC5DF78
:10111000EC2FF0E0E059FF4FD0959081D923D08398
:101120008FBFDF91CF910895CF93DF93C82FD62F34
:10113000B4DFEC2FF0E0E059FF4F9081D92BD08342
:101140008FBFDF91CF910895CF93DF93FC01DC0136
:1011500080E090E0262F30E0E901082E02C0D5950E
:10116000C7950A94E2F7C0FF03C050965C9350976E
:10117000019611968830910579F740FF07C041FF2D
:1011800002C0658301C06683618301C06283DF9111
:10119000CF910895CF93DF931F92CDB7DEB78091A3
:1011A0006A2490916B24E0916624F0916724BE013B
:1011B0006F5F7F4F09958981082E000C990B0F9066
:1011C000DF91CF910895682F80916A2490916B24CC
:1011D000E0916824F0916924099597FD03C081E0AE
:1011E00090E008958FEF9FEF0895CF93DF931F92C4
:1011F000CDB7DEB78FB78983F89489810F90DF91DF
:10120000CF9108958115924059F48091402491E046
:10121000980F90934024811103C062E081E073CF66
:1012200008958115924051F480914024815080931B
:101230004024811103C062E081E076CF08951F93BE
:10124000CF93DF93EC01D1DF182FCE01DBDF888154
:10125000816088831FBF809161248F3F09F4FFCF95
:10126000C4DF909161249F5F909361248FBFDF91D1
:10127000CF911F9108951F93CF93DF93EC01B5DFBA
:10128000182F88818E7F8883CE01CBDF1FBF80918E
:101290006124811101C0FFCFA8DF9091612491509A
:1012A000909361248FBFDF91CF911F910895CF93C9
:1012B000DF931F92CDB7DEB78FB78983F89489810A
:1012C0000F90DF91CF9108951F920F920FB60F925A
:1012D00011242F933F934F935F936F937F938F933B
:1012E0009F93AF93BF93EF93FF934091240250914C
:1012F0002502E0916C24F0916D2461E080E092E0A1
:101300000995FF91EF91BF91AF919F918F917F913F
:101310006F915F914F913F912F910F900FBE0F9062
:101320001F901895FF920F931F93CF93DF93811512
:101330009240A9F5EB0161E270E082E097D0082FBE
:1013400010E060E270E082E091D0102F0027082BBF
:10135000AEDFF82E80E092E055DF809100028170D0
:1013600092E09093000200930C0210930D022C81E6
:101370003D812093180230931902998190930202C3
:101380009B81909304029A81909303029881909399
:1013900001028093000280E092E043DFFFBEDF9114
:1013A000CF911F910F91FF900895FF920F931F937C
:1013B000CF93DF93EC018B017ADFF82ECE0122DF91
:1013C000888D998DF801848395838A8181838C81AE
:1013D00083838B81828389818083CE0122DFFFBE5C
:1013E000DF91CF911F910F91FF900895FF920F937E
:1013F0001F93CF93DF93EC018A0159DFF82ECE01C2
:1014000001DFF801808188A382818AA3818189A379
:1014100083818EA3CE0105DFFFBEDF91CF911F91A7
:101420000F91FF900895FF920F931F93CF93DF9337
:10143000EC018A013CDFF82ECE01E4DE88A1F80140
:1014400080838AA1828389A181838EA18383CE0137
:10145000E8DEFFBEDF91CF911F910F91FF900895BD
:101460001BBEFC0128ED24BF608308954091CA0192
:10147000E62FF72F8093CA0184914093CA01089503
:10148000CF93DF931F92CDB7DEB764E080E03BDE01
:101490008FEF9FEF80930A0490930B04109208043F
:1014A00010920904809163248F3F09F4FFCF8FB716
:1014B0008983F8949981809163248F5F809363245A
:1014C0009FBF81E08093020487E0809300040F9027
:1014D000DF91CF9108951F920F920FB60F921124B2
:1014E0008F939F93EF93FF93EEE6F4E280819181D7
:1014F000019680839183FF91EF919F918F910F903F
:101500000FBE0F901F9018951F920F920FB60F925B
:101510001124CF92DF92EF92FF920F931F932F939C
:101520003F934F935F936F937F938F939F93AF936B
:10153000BF93EF93FF9340916E2450916F240091DD
:1015400070241091712440175107B8F181E0809305
:101550000204E0917424F0917524309771F1809128
:1015600008049091090460E070E0BA01552744270F
:10157000A0E0B0E06A017B01C82AD92AEA2AFB2A46
:10158000C701B60120E030E0980111270027C09084
:101590007224D0907324E12CF12C0C291D292E29C2
:1015A0003F29061717072807390730F0C901B80186
:1015B0006F5F7F4F8F4F9F4F0995FF91EF91BF91C5
:1015C000AF919F918F917F916F915F914F913F91DB
:1015D0002F911F910F91FF90EF90DF90CF900F9080
:1015E0000FBE0F901F9018951F920F920FB60F927B
:1015F00011242F933F934F935F936F937F938F9318
:101600009F93AF93BF93CF93DF93EF93FF93E091BB
:101610004124F0914224848183FF06C08860848342
:1016200083E0838386EF7FC0982F947121F083E05D
:1016300083838FEF78C086FF41C0A0914324B0918F
:101640004424809145249091462414962D913C91F8
:1016500015978217930764F49C012F5F3F4F2093E7
:10166000452430934624A80FB91F11968C9122C0AF
:10167000809147249091482418962D913C91199778
:1016800082179307C8F420914924222321F08681F0
:10169000816086834AC016962D913C911797AC01C4
:1016A0004F5F5F4F4093472450934824D901A80FC0
:1016B000B91F8C91878339C083E02CC087FF32C06B
:1016C000A0914324B09144248091472490914824D0
:1016D00018962D913C91199782179307F8F4169656
:1016E0006D917C9117979C012F5F3F4F209347246A
:1016F000309348244781EB01C80FD91F48831896BF
:101700008D919C9119972817390718F482E08383EB
:101710000CC087E0838310924B2407C083E083834F
:1017200089EF01C08BEF80934B24FF91EF91DF9104
:10173000CF91BF91AF919F918F917F916F915F9169
:101740004F913F912F910F900FBE0F901F901895C2
:101750001F920F920FB60F9211242F933F934F9326
:101760005F936F937F938F939F93AF93BF93EF9309
:10177000FF933ADFFF91EF91BF91AF919F918F91CE
:101780007F916F915F914F913F912F910F900FBE7D
:101790000F901F901895FC01DB0114968C918583A6
:1017A00088EB818381E08483E1E4F4E21186128690
:1017B000E0EAF0E0828182608283789480E008959C
:1017C000CF93DF931F92CDB7DEB7DC01FB01892BEE
:1017D00009F444C0309709F441C0828590914A24AD
:1017E000992319F081113CC0FFCF8FB78983F894FA
:1017F000898191E090934A2490E890934B248FBF85
:10180000A0934124B09342246093432470934424D2
:101810001092452410924624109247241092482496
:10182000409349249081990F24813581232B11F411
:101830004111916016969C9380914B248038E1F37E
:10184000E0914124F091422484818370813009F039
:10185000F7CF80914B2410924A2403C088EF01C037
:1018600086EF0F90DF91CF910895009709F45EC045
:10187000811524E0920711F464E005C0803821E06E
:10188000920719F462E080E050C0803823E09207AC
:1018900011F461E005C0811522E0920719F462E0BD
:1018A00081E043C0811528E0920711F461E036C061
:1018B000811529E0920711F461E029C081152AE021
:1018C000920711F461E030C0803428E0920711F4EF
:1018D00062E024C0803928E0920711F464E01EC061
:1018E000803C28E0920711F468E018C0803C29E0B1
:1018F000920711F468E00BC0803A28E0920711F4D7
:1019000060E10CC0803A29E0920719F460E184E0BC
:101910000CC0803824E0920719F460E483E005C02D
:10192000803A944019F460E485E0EDCB0895FC0121
:10193000218125FFFCCF608380E090E00895FC01C9
:10194000218127FFFCCF808108958F929F92AF92D3
:10195000BF92CF92DF92EF92FF920F931F93CF939C
:10196000DF93EC016A017B01480159018C81B901C7
:10197000A80182FF11C033E076956795579547958A
:101980003A95D1F7D501C401E6E1B695A7959795AB
:101990008795EA95D1F710C094E0769567955795AD
:1019A00047959A95D1F7D901C80127E1B695A79532
:1019B000979587952A95D1F74C155D056E057F059E
:1019C00008F495C0C816D906EA06FB0608F48FC0CD
:1019D0008C8182FD04C0CC0CDD1CEE1CFF1CC501FB
:1019E000B401A7019601D2D219EF8FEF90E0A0E0E9
:1019F000B0E0281739074A075B0758F0880F991F8E
:101A0000AA1FBB1F1D3F0CF481601F5F173089F7B1
:101A100048C017FF46C0D701C601F3E0880F991FE1
:101A2000AA1FBB1FFA95D1F7881A990AAA0ABB0AFE
:101A3000812F012E000C990B1E3FDCF42DEF3FEFA0
:101A4000A901481B590B04C0880C991CAA1CBB1C7B
:101A50004A95D2F7D701C601B695A7959795879570
:101A6000BC01CD01680D791D8A1D9B1DA701960142
:101A700016C00396A701960104C0220F331F441F0E
:101A8000551F8A95D2F7DA01C901B695A7959795A2
:101A90008795BC01CD01680D791D8A1D9B1D76D2ED
:101AA0001CC083E0810FA701960104C0220F331FE1
:101AB000441F551F8A95D2F7DA01C901B695A7953B
:101AC00097958795BC01CD01680D791D8A1D9B1DD9
:101AD0005DD22150310941095109932F9F70812F07
:101AE0008295807F892B8F832E8381E001C080E0E7
:101AF000DF91CF911F910F91FF90EF90DF90CF90EA
:101B0000BF90AF909F908F9008950F931F93CF93A6
:101B1000DF93EC018B01A9DE8D818F738D83F8013A
:101B200095818481982B8681811188E0892B8D8312
:101B3000F801408151816281738100E018E428EE50
:101B400031E0CE0102DF9C8198609C839C81906192
:101B50009C83DF91CF911F910F910895CF93DF93D5
:101B6000EB01EDDE8883DF91CF910895E0CECF9336
:101B7000DF93CDB7DEB72797CDBFDEBF9BDA63DA41
:101B800087E08093A2007CDC80EA98E080936A245E
:101B900090936B2486EB9DE0809368249093692456
:101BA0008EEA9DE0809366249093672483E08D8382
:101BB0001E821F8280E092ECA1E0B0E089839A83CC
:101BC000AB83BC8360E183E09EDABE016F5F7F4F31
:101BD00080EA98E09ADF6AEC78E083EE98E042D2FF
:101BE00016DA84E08093A200789487EA92E2D5D254
:101BF0001F9286E08F938DEC92E29F938F93BAD2DF
:101C000081EE92E2CAD20E94F8038DD90E944F0160
:101C10000E94FA000F900F900F900F90CC24C39465
:101C20000EE114E284E0F82E98E0E92E8091A108FC
:101C300087FF58C080917624909177245DD28436B6
:101C400009F050C0C0924C2484E093E2A6D287E20F
:101C500093E2A3D28AE493E2A0D286E793E29DD2F4
:101C600086E993E29AD280EC93E297D282EE93E2F5
:101C700094D282E094E291D280914C24882391F115
:101C80008091A10887FFFCCF8091762490917724E2
:101C900033D2813719F410924C2424C0843611F4C5
:101CA000C9D8EACF803711F43ED9E6CF853611F492
:101CB00038D8E2CF843771F41F930F935BD2F09240
:101CC0002706E0922706F0928706E09287060F909B
:101CD0000F90D2CF873711F4DED8CECF883761F698
:101CE00043D8CACFA8D9D82E0E9420038D2DA8D9B9
:101CF0002FEF87EA91E6215080409040E1F700C045
:101D0000000094CF70D088F09F5790F0B92F99279A
:101D1000B751A0F0D1F0660F771F881F991F1AF0F6
:101D2000BA95C9F712C0B13081F077D0B1E008950B
:101D300074C0672F782F8827B85F39F0B93FCCF38C
:101D4000869577956795B395D9F73EF490958095EC
:101D5000709561957F4F8F4F9F4F0895E89409C00C
:101D600097FB3EF490958095709561957F4F8F4FCE
:101D70009F4F9923A9F0F92F96E9BB279395F695E4
:101D8000879577956795B795F111F8CFFAF4BB0F62
:101D900011F460FF1BC06F5F7F4F8F4F9F4F16C0C6
:101DA000882311F096E911C0772321F09EE8872F50
:101DB000762F05C0662371F096E8862F70E060E00C
:101DC0002AF09A95660F771F881FDAF7880F969585
:101DD000879597F9089557FD9058440F551F59F06E
:101DE0005F3F71F04795880F97FB991F61F09F3F08
:101DF00079F087950895121613061406551FF2CF31
:101E00004695F1DF08C0161617061806991FF1CF80
:101E100086957105610508940895E894BB276627A7
:101E20007727CB0197F908950BD078C069D028F0B7
:101E30006ED018F0952309F05AC05FC01124EECF80
:101E4000CADFA0F3959FD1F3950F50E0551F629F15
:101E5000F001729FBB27F00DB11D639FAA27F00D03
:101E6000B11DAA1F649F6627B00DA11D661F829F2A
:101E70002227B00DA11D621F739FB00DA11D621F0F
:101E8000839FA00D611D221F749F3327A00D611D2C
:101E9000231F849F600D211D822F762F6A2F11240E
:101EA0009F5750408AF0E1F088234AF0EE0FFF1F61
:101EB000BB1F661F771F881F91505040A9F79E3F98
:101EC000510570F014C0AACF5F3FECF3983EDCF3ED
:101ED000869577956795B795F795E7959F5FC1F7D5
:101EE000FE2B880F911D9695879597F9089597F980
:101EF0009F6780E870E060E008959FEF80EC0895B0
:101F000000240A94161617061806090608950024D8
:101F10000A9412161306140605060895092E039452
:101F2000000C11F4882352F0BB0F40F4BF2B11F4C6
:101F300060FF04C06F5F7F4F8F4F9F4F0895AA1BB4
:101F4000BB1B51E107C0AA1FBB1FA617B70710F0A4
:101F5000A61BB70B881F991F5A95A9F780959095D6
:101F6000BC01CD01089597FB072E16F4009406D00E
:101F700077FD08D0E4DF07FC05D03EF4909581950D
:101F80009F4F0895709561957F4F0895A1E21A2E95
:101F9000AA1BBB1BFD010DC0AA1FBB1FEE1FFF1F0D
:101FA000A217B307E407F50720F0A21BB30BE40B5D
:101FB000F50B661F771F881F991F1A9469F76095A4
:101FC0007095809590959B01AC01BD01CF0108955E
:101FD000052E97FB16F400940FD057FD05D0D6DFE1
:101FE00007FC02D046F408C05095409530952195E5
:101FF0003F4F4F4F5F4F0895909580957095619535
:102000007F4F8F4F9F4F0895A29FB001B39FC00194
:10201000A39F700D811D1124911DB29F700D811D14
:102020001124911D0895F0DFB7FF0895821B930BD3
:102030000895EADFA59F900DB49F900DA49F800D99
:10204000911D11240895B7FFF4CFF3DF821B930B8A
:102050000895FB01DC0102C001900D9241505040F7
:10206000D8F708950F931F93CF93DF93009731F420
:102070006115710519F480E090E039C08B01EC0125
:102080006EE070E081E090E08AD2FC01892B99F348
:1020900080E883830115110571F00287138781E8B9
:1020A00083838091762490917724892B21F4E09387
:1020B0007624F09377242097C9F0C087D187838155
:1020C000826083838091782490917924892B71F4A4
:1020D000E0937824F093792480917A2490917B2462
:1020E000892B21F4E0937A24F0937B24CF01DF91B4
:1020F000CF911F910F910895CF93DF93EC012B8126
:1021000020FF33C026FF0AC02F7B2B838E819F8147
:1021100001968E839F838A8190E029C022FF0FC0A1
:10212000E881F9818081082E000C990B009719F441
:1021300020622B831AC03196E883F9830EC0EA85AA
:10214000FB85099597FF09C02B81019611F080E26C
:1021500001C080E1822B8B8308C02E813F812F5FDD
:102160003F4F2E833F83992702C08FEF9FEFDF9170
:10217000CF910895A0E0B0E0EFEBF0E112C4AE0122
:102180004B5F5F4FFA0161917191AF0180917824AB
:102190009091792432D0E2E01DC40F931F93CF9326
:1021A000DF93E0917824F0917924238121FF1BC0F3
:1021B0008C01D0E0C0E0F80181918F01609178241A
:1021C00070917924DB011896ED91FC911997882381
:1021D00031F00995892B79F3DFEFCFEFECCF8AE06F
:1021E0000995892B19F08FEF9FEF02C08D2F9C2F3F
:1021F000DF91CF911F910F910895ABE0B0E0E2E045
:10220000F1E1BFC36C017B018A01FC0116821782D8
:10221000838181FFBFC1CE0101963C01F60193810C
:10222000F70193FD859193FF81917F01882309F444
:10223000ADC1853239F493FD859193FF81917F0182
:10224000853221F4B60190E002D3E8CF912C212C05
:10225000312CFFE1F315D8F08B3279F038F480326D
:1022600079F08332A1F4232D20611DC08D3261F0FD
:10227000803369F4232D216016C0832D8260382EAF
:10228000E32DE4603E2E2AC0F32DF8601DC037FC1C
:102290002DC020ED280F2A3040F08E32B9F436FCE4
:1022A00075C1232D2064322E19C036FE06C08AE087
:1022B000989E200D1124922E11C0EAE02E9E200D32
:1022C0001124222EF32DF0623F2E08C08C3621F40B
:1022D000832D8068382E02C0883641F4F70193FDC3
:1022E000859193FF81917F018111B3CF982F9F7DBD
:1022F0009554933028F40C5F1F4F9FE399830DC0D2
:10230000833631F0833771F0833509F055C020C032
:10231000F801808189830E5F1F4F88248394912C5C
:10232000530112C02801F2E04F0E511CF801A080A9
:10233000B18036FE03C0692D70E002C06FEF7FEF01
:10234000C5017AD24C018201F32DFF773F2E15C0D3
:10235000280122E0420E511CF801A080B18036FE17
:1023600003C0692D70E002C06FEF7FEFC50152D24C
:102370004C01F32DF0683F2E820133FC19C0822DF1
:1023800090E088169906A0F4B60180E290E05FD252
:102390002A94F5CFF50137FC859137FE81915F01D5
:1023A000B60190E054D221102A9421E0821A9108BB
:1023B0008114910479F7E1C0843611F0893639F53A
:1023C000F80137FE07C060817181828193810C5FC3
:1023D0001F4F08C060817181072E000C880B990B7C
:1023E0000E5F1F4FF32DFF763F2E97FF09C090958C
:1023F0008095709561957F4F8F4F9F4FF0683F2E6E
:102400002AE030E0A3015FD2882E861844C08537C9
:1024100031F4232D2F7EB22E2AE030E025C0932DFB
:10242000997FB92E8F36C1F018F4883579F0AEC097
:10243000803719F0883721F0A9C0E92FE061BE2E5E
:10244000B4FE0DC0FB2DF460BF2E09C034FE0AC0DF
:10245000292F2660B22E06C028E030E005C020E11A
:1024600030E002C020E132E0F801B7FE07C0608131
:102470007181828193810C5F1F4F06C060817181E1
:1024800080E090E00E5F1F4FA3011DD2882E8618BA
:10249000FB2DFF773F2E36FE0DC0232D2E7FA22E63
:1024A000891458F434FE0BC032FC09C0832D8E7E93
:1024B000A82E05C0B82CA32C03C0B82C01C0B92C81
:1024C000A4FE0FC0FE01E80DF11D8081803321F4D0
:1024D0009A2D997EA92E09C0A2FE06C0B394B3948A
:1024E00004C08A2D867809F0B394A3FC10C0A0FE26
:1024F00006C0B21480F4280C922C9B180DC0B214A4
:1025000058F4B60180E290E0A2D1B394F8CFB214AF
:1025100018F42B1802C0982C212CA4FE0FC0B60171
:1025200080E390E094D1A2FE16C0A1FC03C088E72E
:1025300090E002C088E590E0B6010CC08A2D867854
:1025400051F0A1FE02C08BE201C080E2A7FC8DE247
:10255000B60190E07CD1891430F4B60180E390E0BC
:1025600076D19A94F8CF8A94F301E80DF11D808119
:10257000B60190E06CD18110F6CF222009F44ECE46
:10258000B60180E290E063D12A94F7CFF60186810C
:10259000978102C08FEF9FEF2B96E2E10BC20F9362
:1025A0001F93CF93DF93869F8001879F100D969F87
:1025B000100D1124C8010DD0EC01009721F0A801E5
:1025C00060E070E032D1CE01DF91CF911F910F9189
:1025D00008950F931F93CF93DF938230910510F4EA
:1025E00082E090E0E0917E24F0917F2420E030E0D2
:1025F000A0E0B0E0309719F1408151810281138150
:1026000048175907C8F08417950769F4109731F0F7
:1026100012960C93129713961C9327C000937E2456
:1026200010937F2422C02115310519F0421753075A
:1026300018F49A01BD01EF01DF01F801DBCF21158C
:102640003105F9F0281B390B2430310580F48A81DB
:102650009B816115710521F0FB018283938304C086
:1026600080937E2490937F24FE01329644C0FE0125
:10267000E20FF31F8193919322503109288339830C
:102680003AC020917C2430917D24232B41F4209169
:1026900002203091032020937C2430937D242091CC
:1026A0000020309101202115310541F42DB73EB7AE
:1026B0004091042050910520241B350BE0917C248F
:1026C000F0917D24E217F307A0F42E1B3F0B28178F
:1026D000390778F0AC014E5F5F4F2417350748F09B
:1026E0004E0F5F1F40937C2450937D2481939193E0
:1026F00002C0E0E0F0E0CF01DF91CF911F910F9198
:102700000895CF93DF93009709F481C0FC013297BD
:1027100012821382A0917E24B0917F24109781F4BD
:1027200020813181820F931F20917C2430917D2460
:102730002817390751F5E0937C24F0937D2467C076
:10274000ED0120E030E0CE17DF0740F44A815B81E5
:102750009E0141155105F1F0EA01F5CFC283D38303
:1027600040815181840F951FC817D90759F488817A
:102770009981840F951F0296808391838A819B8122
:10278000828393832115310529F4E0937E24F0930D
:102790007F243DC0E901EA83FB8349915991C40F2D
:1027A000D51FEC17FD0761F480819181840F951F7F
:1027B0000296E90188839983828193818A839B832E
:1027C000E0E0F0E012968D919C911397009719F03C
:1027D000FD01DC01F7CF8D919C9111979D012E5F3A
:1027E0003F4F820F931F20917C2430917D24281726
:1027F000390769F4309729F410927E2410927F24CF
:1028000002C012821382A0937C24B0937D24DF91B6
:10281000CF910895FC010590615070400110D8F7E8
:10282000809590958E0F9F1F0895DC0101C06D93D8
:1028300041505040E0F70895FC0161507040019014
:102840000110D8F7809590958E0F9F1F08950F93D4
:102850001F93CF93DF93FB01238121FD03C08FEFF3
:102860009FEF2CC022FF16C04681578124813581FD
:102870004217530744F4A081B1819D012F5F3F4F60
:10288000208331838C93268137812F5F3F4F2683AE
:10289000378314C08B01EC01FB010084F185E02D2E
:1028A0000995892BE1F6D80116968D919C91179781
:1028B000019616968D939C931797CE01DF91CF9139
:1028C0001F910F910895FA01AA27283051F1203164
:1028D00081F1E8946F936E7F6E5F7F4F8F4F9F4FB4
:1028E000AF4FB1E03ED0B4E03CD0670F781F891FF6
:1028F0009A1FA11D680F791F8A1F911DA11D6A0FC4
:10290000711D811D911DA11D20D009F468943F9176
:102910002AE0269F11243019305D3193DEF6CF0175
:102920000895462F4770405D4193B3E00FD0C9F73B
:10293000F6CF462F4F70405D4A3318F0495D31FDA8
:102940004052419302D0A9F7EACFB4E0A6959795FB
:10295000879577956795BA95C9F7009761057105D1
:1029600008959B01AC010A2E06945795479537951B
:102970002795BA95C9F7620F731F841F951FA01D75
:1029800008952F923F924F925F926F927F928F9213
:102990009F92AF92BF92CF92DF92EF92FF920F93EE
:1029A0001F93CF93DF93CDB7DEB7CA1BDB0BCDBF31
:1029B000DEBF09942A88398848885F846E847D84C4
:1029C0008C849B84AA84B984C884DF80EE80FD80D7
:1029D0000C811B81AA81B981CE0FD11DCDBFDEBF75
:0829E000ED010895F894FFCF0A
:1029E800000080242000648000A8204000B420203B
:1029F80000C0201000CE200000B7204E24000000A8
:102A0800000000000000006810740EF4013C00F49F
:102A18001A000000000000000000000000546F626F
:102A28007920436875726368696C6C0000313836C8
:102A3800353520317332700000000000004C494FDA
:102A48004E00000000000000000000000000000030
:102A5800000000000000000000000000000000006E
:102A6800000000000000000000000000000000005E
:102A780000000000000000000000000000500000FE
:102A880000010000000000004E4F545F50524553B3
:102A9800454E54004449534348415247494E470024
:102AA80046554C4C595F43484152474544004655AA
:102AB8004C4C595F444953434841524745440045AB
:102AC80052524F523A204661696C656420746F20F7
:102AD800777269746520454550524F4D00455252F2
:102AE8004F523A204661696C656420746F207265A4
:102AF800616420454550524F4D0D004552524F528A
:102B08003A20496E76616C69642063686B73756DF1
:102B180020696E20454550524F4D20696E206C6FDC
:102B2800636174696F6E2025643A203078257820B7
:102B3800213D20307825780D0A004552524F523AEF
:102B480020417474656D7074656420746F207772A9
:102B5800697465206265796F6E64206D656D6F724A
:102B680079206D617020656E640D0045726173692E
:102B78006E6720616C6C206D656D6F7279206D6178
:102B880070202E2E2E2000646F6E650D0045726138
:102B980073696E6720454550524F4D202E2E2E20CA
:102BA800004D656D6F7279204D61703A0D007B2084
:102BB8003078253032782C20307825303278207DD6
:102BC8002C200050726F6772616D6D696E672064AA
:102BD800656661756C742076616C756573202E2E40
:102BE8002E20004E6F20646174612C206275696C20
:102BF80064696E672064656661756C7420736574BA
:102C080074696E67730D000000000000000000008A
:102C1800006810740EF4013C00F41A000000000073
:102C280000000000000000546F627920436875724C
:102C38006368696C6C000031383635352031733281
:102C4800700000000000004C494F4E0000000000DA
:102C5800000000000000000000000000000000006C
:102C6800000000000000000000000000000000005C
:102C7800000000000000000000000000000000004C
:102C8800000000000000000C0A0D2D2D2054434CBC
:102C9800204261747465727920436F756C6F6D6240
:102CA80020436F756E746572202D2D0D002D2D201B
:102CB80056657273696F6E3A202564202D2D0D0AB2
:102CC800000D0A50726573732027642720746F20E3
:102CD800656E74657220696E2074657374206D6FFB
:102CE80064650D000A0D57656C636F6D6520746F20
:102CF800207468652074657374206D6F64652E2078
:102D080050726573730D00202D206B657920277133
:102D18002720746F20657869742066726F6D20743F
:102D2800657374206D6F64650D00202D206B6579C7
:102D38002027642720746F2064756D70207468657F
:102D4800204D656D6F7279204D617020636F6E74D0
:102D5800656E74730D00202D206B6579202765271B
:102D680020746F206572617365204D656D6F72798F
:102D7800204D61700D00202D206B6579202770276C
:102D880020746F2070726F6772616D206465666170
:102D9800756C74204D656D6F7279204D61700D00F2
:102DA800202D206B65792027742720746F20746F7D
:102DB80067676C65206F75747075742070696E73C1
:102DC8000D00202D206B65792027772720746F2030
:102DD80073746F7265204D656D6F7279204D6170E7
:102DE8000D00202D206B65792027782720746F200F
:102DF800636C65617220454550524F4D0D00546F0C
:102E080067676C6520616C6C206F757470757420D1
:082E180070696E730A0D0000E1
:00000001FF
