:10000000C3C00000DEC00000DCC00000DAC0000099
:10001000D8C00000D6C00000D4C00000D2C000008C
:10002000D0C00000CEC000000C94D90B0C94F20B91
:10003000C8C000000C941E0DC4C00000C2C0000067
:10004000C0C00000BEC00000BCC00000BAC00000BC
:10005000B8C00000B6C00000B4C00000B2C00000CC
:100060000C94C708AEC00000ACC00000AAC00000DD
:10007000A8C00000A6C00000A4C00000A2C00000EC
:10008000A0C000009EC000009CC000009AC00000FC
:1000900098C0000096C0000094C0000092C000000C
:1000A00090C000008EC000008CC000008AC000001C
:1000B00088C0000086C000000C94620C82C0000062
:1000C00080C000007EC000007CC000007AC000003C
:1000D00078C0000076C0000074C0000072C000004C
:1000E00070C000006EC000006CC000006AC000005C
:1000F00068C0000066C0000064C0000062C000006C
:1001000060C000005EC000005CC000005AC000007B
:1001100058C0000056C0000054C000000C94730A80
:1001200050C000004EC000004CC000004AC000009B
:1001300048C0000046C0000044C0000042C00000AB
:1001400040C000003EC000003CC000003AC00000BB
:1001500038C0000036C0000034C0000032C00000CB
:1001600030C000002EC000002CC000001D03ED01B7
:10017000DCFDCCF5BCE5ACC5A86EBCE5ACC59C858A
:10018000960392C19121909611241FBECFEFCDBF4F
:10019000D7E2DEBF14E2A0E0B0E2ECE3FFE202C08F
:1001A00005900D92A633B107D9F724E2A6E3B4E295
:1001B00001C01D92A938B207E1F70E944D100C94BE
:1001C0009C171ECFCF93DF9300D0CDB7DEB70ED3F1
:1001D00089839A8342E0BE016F5F7F4F80E7D2D56B
:1001E0000F900F90DF91CF910895CF93DF9300D0C0
:1001F000CDB7DEB7F1D389839A8342E0BE016F5F4A
:100200007F4F82E7BFD50F900F90DF91CF91089578
:10021000CF93DF931F92CDB7DEB78FE0898341E0A4
:10022000BE016F5F7F4F8DE7ADD50F90DF91CF910E
:100230000895CF93DF9300D0CDB7DEB742E0BE0183
:100240006F5F7F4F80E72ED689819A810F900F9044
:10025000DF91CF910895CF93DF9300D0CDB7DEB774
:1002600042E0BE016F5F7F4F82E71CD689819A8191
:100270000F900F90DF91CF910895CF93DF9300D02F
:10028000CDB7DEB742E0BE016F5F7F4F84E70AD68D
:1002900049815A8126E030E280E02C5F3F4FF9012E
:1002A0003497608171816417750711F08F5FF5CF06
:1002B0000F900F90DF91CF910895CF93DF9300D0EF
:1002C000CDB7DEB742E0BE016F5F7F4F8BE7EAD567
:1002D00029813A81A0E1BEE00E94831160933F240E
:1002E00070934024809341249093422442E0BE01C5
:1002F0006F5F7F4F89E7D6D549815A819A01A0E186
:10030000BEE00E94831160933B2470933C24809351
:100310003D2490933E24DA0120E43EE745E050E09E
:100320000E94981120913F24309140244091412413
:10033000509142240E9445112093522441E062E5ED
:1003400074E286E71FD544E066E374E280E6AAD54E
:100350000F900F90DF91CF9108952F923F924F927F
:100360005F926F927F928F929F92AF92BF92CF9245
:10037000DF92EF92FF920F931F93CF93DF9300D002
:1003800000D0CDB7DEB767DF8C016090522475DFF7
:10039000782E4FDF7C015FDF21EFE21A2AE0F20ABC
:1003A0002BEDE21625E0F20628F00F964F9710F499
:1003B00010E065C042E0BE016D5F7F4F8CE072D5FA
:1003C000AB80BC8042E0BE016F5F7F4F8EE06AD59C
:1003D00089819A816AE070E00E9432116B01770F87
:1003E000EE08FF0826DF4C018B839C8320903F247E
:1003F00030904024409041245090422424E07212D6
:10040000DCC09501AFE5B0E00E94831124E630E046
:1004100040E050E00E946711A12CB12C281539054D
:100420004A055B050CF0D7C0073E8FEF18070CF0AC
:10043000D2C0F094E094D094C094C11CD11CE11CB3
:10044000F11CC801012E000CAA0BBB0BC816D90663
:10045000EA06FB060CF0BFC080913A2486300CF40B
:10046000A8C010923A2484E68093522420923B2420
:1004700030923C2440923D2450923E2412E08091E0
:100480005224681601F141E062E574E286E77AD40D
:1004900060913B2470913C2480913D2490913E24B6
:1004A00020E13EE040E050E00E9467112B833C8356
:1004B00042E0BE016D5F7F4F89E764D444E066E3AC
:1004C00074E280E65FD48091362490913724A09125
:1004D0003824B091392440913F24509140246091B8
:1004E000412470914224481759076A077B070CF092
:1004F00053C0841B950BA60BB70B809336249093A7
:100500003724A0933824B093392442E0BE016F5FB2
:100510007F4F87E7C7D489819A81019689839A831F
:1005200042E0BE016F5F7F4F87E72CD442E0BE01FF
:100530006D5F7F4F82E1B6D42B813C81A0E1BEE0AC
:100540000E94831120E931E040E050E00E94451113
:1005500080913F2490914024A0914124B091422465
:10056000BC01CD01621B730B840B950B60933F2480
:1005700070934024809341249093422420E13EE0F4
:1005800040E050E00E9467112B833C8342E0BE01B3
:100590006D5F7F4F8BE7F6D3171509F4A8C084E091
:1005A000189FB00111246A5F7F4D42E084E7EAD3CF
:1005B0009EC08F5F80933A240EC022E072120BC05F
:1005C000C801012E000CAA0BBB0BC816D906EA06FF
:1005D000FB060CF048CFC0903B24D0903C24E09028
:1005E0003D24F0903E24101611060CF049C023E77C
:1005F00030E0D8010E94921124E630E040E050E063
:100600000E946711C21AD30AE40AF50AC0923B2479
:10061000D0923C24E0923D24F0923E2480913624F6
:1006200090913724A0913824B0913924820F931FE0
:10063000A41FB51F8093362490933724A0933824A9
:10064000B0933924F7FE08C010923B2410923C244A
:1006500010923D2410923E2420913B2430913C2462
:1006600040913D2450913E24A4E6B0E00E949811B0
:10067000A20191010E9445112093522411E0FFCE66
:10068000012E000C220B330BC01AD10AE20AF30A26
:10069000C0923B24D0923C24E0923D24F0923E2430
:1006A0002C143D044E045F0444F420923B24309209
:1006B0003C2440923D2450923E2420913B24309192
:1006C0003C2440913D2450913E24A4E6B0E00E9499
:1006D0009811A20191010E94451124361CF4209327
:1006E000522403C083E68093522414E0C8CE24969B
:1006F000CDBFDEBFDF91CF911F910F91FF90EF90A3
:10070000DF90CF90BF90AF909F908F907F906F9031
:100710005F904F903F902F90089554DD66DD1DCE81
:10072000CF93DF931F92CDB7DEB78FB78983F8944D
:1007300089810F90DF91CF910895F2DFE0E0F2E040
:100740009081946090838FBF08950F931F93CF93F0
:10075000DF9300D000D0CDB7DEB78C01AE014F5F84
:100760005F4F61E080E092E06DD70031110518F035
:100770001982005102C083E18983000F000F000F2E
:100780000A838B81807F8B83AE014F5F5F4F61E077
:1007900080E092E03AD72496CDBFDEBFDF91CF91C3
:1007A0001F910F910895CF93DF93CDB7DEB72697B2
:1007B000CDBFDEBFBE016F5F7F4F80E092E004D708
:1007C0008981817E9A819F789A8396E09C8380615B
:1007D00089831B82BE016F5F7F4F80E092E0B1D6BC
:1007E0002696CDBFDEBFDF91CF910895CF92DF92E5
:1007F000EF92FF921F93CF93DF93CDB7DEB72A9787
:10080000CDBFDEBFBE016F5F7F4F80E092E0DCD6E0
:1008100089819A819F789A8396E09C83817E8983DF
:100820001B82BE016F5F7F4F80E092E08AD6AE01EF
:10083000495F5F4F61E080E092E004D781E08F8301
:1008400080E188878985807F8987AE01495F5F4F16
:1008500061E080E092E0D9D680E092E0F5D519E140
:10086000C12CD12C760169DF80910602982F9170FE
:1008700080FFFACF9093060253DF2091240230913B
:1008800025028FBFC20ED31EE11CF11C115059F777
:1008900080E092E0F5D5C701B60129E130E040E003
:1008A00050E00E94451144275527A6E6BCE00E946F
:1008B000981128EE33E040E050E00E944511C90154
:1008C0002A96CDBFDEBFDF91CF911F91FF90EF90B1
:1008D000DF90CF900895CF92DF92EF92FF92CF9367
:1008E000DF9384E0809325062FEF87EA91E621507D
:1008F00080409040E1F700C0000055DF80E090E0CC
:1009000024DF80E092E0A0D5C9E1C12CD12C760192
:1009100014DF80910602982F917080FFFACF909398
:100920000602FEDE282F80912402909125022FBF1F
:10093000092E000CAA0BBB0BC80ED91EEA1EFB1E0B
:10094000C15031F7C0911A20D0911B20C701B601C8
:1009500029E130E040E050E00E94451128833983CE
:1009600081E090E0F2DEC9E1C12CD12C7601E5DE18
:1009700080910602982F917080FFFACF9093060223
:10098000CFDE282F80912402909125022FBF092EBF
:10099000000CAA0BBB0BC80ED91EEA1EFB1EC150D1
:1009A00031F7C0911A20D0911B20C701B60129E16F
:1009B00030E040E050E00E9445112A833B8380E014
:1009C00092E05ED584E080932606DF91CF91FF9080
:1009D000EF90DF90CF9008958F929F92AF92BF9249
:1009E000CF92DF92EF92FF92CF93DF93DCDE80E035
:1009F00090E0ABDE80E092E027D5C9E1C12CD12C9C
:100A000076019BDE80910602982F917080FFFACFCD
:100A10009093060285DE282F809124029091250272
:100A20002FBF092E000CAA0BBB0BC80ED91EEA1E45
:100A3000FB1EC15031F7E0911A20F0911B20C081BC
:100A4000D181C701B60129E130E040E050E00E94C9
:100A500067112C1B3D0B6901330FEE08FF0881E085
:100A600090E073DEC9E1812C912C540166DE809107
:100A70000602982F917080FFFACF9093060250DE05
:100A8000282F80912402909125022FBF092E000C5F
:100A9000AA0BBB0B880E991EAA1EBB1EC15031F7B4
:100AA000E0911A20F0911B20C281D381C501B401CD
:100AB00029E130E040E050E00E946711C9018C1B41
:100AC0009D0BEC0180E092E0DBD4CE01DD0FAA0BA0
:100AD000BB0BA7019601281B390B4A0B5B0BAEEC35
:100AE000B1E00E94981128EE33E040E050E00E940F
:100AF0006711C901DF91CF91FF90EF90DF90CF9008
:100B0000BF90AF909F908F900895382FFC0180E0A8
:100B100090E02E2F231B261720F42191820F911D88
:100B2000F8CF0895CF93DF93EC016EE0EEDF8E8770
:100B30009F87DF91CF910895CF93DF93CDB7DEB735
:100B40002B97CDBFDEBF8BE0ECE9F0E2DE01119622
:100B500001900D928A95E1F740E0BE016F5F7F4FF3
:100B600080E894E0A5D7892BB9F72B96CDBFDEBFDF
:100B7000DF91CF910895EF92FF920F931F93CF9340
:100B8000DF93CDB7DEB72B97CDBFDEBF182F7B012C
:100B9000042FCB01C7DF20E11202C00111249065B0
:100BA00099838A831B821C8281E090E08D839E83DF
:100BB000EF82F886402F50E049875A871B8640E035
:100BC000BE016F5F7F4F80E894E072D7892B51F0B0
:100BD0008EED90E29F938F930E9464130F900F907D
:100BE0008FEF02C0A9DF80E02B96CDBFDEBFDF9183
:100BF000CF911F910F91FF90EF9008952F923F9208
:100C00004F925F926F927F928F929F92AF92BF921C
:100C1000CF92DF92EF92FF920F931F93CF93DF93C8
:100C2000CDB7DEB7AC97CDBFDEBF34E0E32EF12CFD
:100C300040E4C42ED12C44244A941CA6512C312CBF
:100C400066246394712C60E1862E912C7AE1A72EA4
:100C500071E2B72E832D8170282E8D2D806589A39A
:100C6000CAA21BA21CA26DA27EA2022D10E024E04B
:100C7000000F111F2A95E1F7A1E0B0E0AC0FBD1FF6
:100C80000A0F1B1F0FA318A789A69AA61BA641E04F
:100C9000BE016F5D7F4F80E894E00AD7892B29F071
:100CA0008CEF90E20E94771356C06EE0C8012DDFF2
:100CB000F801268537858217930769F03F932F93B4
:100CC0009F938F93FF92EF92BF92AF920E94641313
:100CD000CDBFDEBF1BC0339491E0391202C04E2C51
:100CE00015C0E52DF0E094E0EE0FFF1F9A95E1F7B7
:100CF000A1E0B0E0AC0FBD1FEA0FFB1FD8018C9143
:100D00009081891B813470F44E2C2CA6B0E1CB0E5F
:100D1000D11CEFEFEE1AFE0A522CF0E4EF16F104AC
:100D200009F098CF3320B9F08CA5E82FF0E084E0EB
:100D3000EE0FFF1F8A95E1F7A1E0B0E0AC0FBD1FF9
:100D4000EA0FFB1F80E1A7E5B4E201900D928A95BE
:100D5000E1F7842D01C08FEFAC96CDBFDEBFDF91F0
:100D6000CF911F910F91FF90EF90DF90CF90BF90A8
:100D7000AF909F908F907F906F905F904F903F903B
:100D80002F9008950F931F93CF93DF9300D0CDB78B
:100D9000DEB719821A8290E050E09A01280F391FBD
:100DA0002F37310534F089E591E20E9477138FEFF8
:100DB00072C0845E9F4D0E94D31280E090E020E0DC
:100DC00030E0FC01E45EFF4D4081240F311D0196AF
:100DD0008E379105B1F729833A838A8180939A20CF
:100DE000898180939B20009165241091662409835A
:100DF0001A83809199208093582480919320909118
:100E000094208093592490935A2480919520909116
:100E1000962080935B2490935C24809197209091FE
:100E2000982080935D2490935E2480912E20909151
:100E30002F20809363249093642480917C20909150
:100E40007D20A0917E20B0917F2080935F2490939D
:100E50006024A0936124B093622487E594E262DE6B
:100E600080916524909166240817190799F0809164
:100E700057248F5F8093572440E167E574E28091A7
:100E8000672479DE809167248F5F803409F484E0E1
:100E90008093672480E00F900F90DF91CF911F9196
:100EA0000F9108959B0150E0682F70E0645E7F4DC4
:100EB000C9010C94D3121F93CF93DF931F92CDB728
:100EC000DEB78FEF89838AE891E29F938F930E9428
:100ED00064130F900F9010E041E0BE016F5F7F4FF1
:100EE000812F50DF1F5F1038B9F786EA91E20E9428
:100EF00077130F90DF91CF911F9108958F929F925A
:100F0000AF92BF92CF92DF92EF92FF920F931F9317
:100F1000CF93DF93CDB7DEB76B97CDBFDEBF8CEA43
:100F200091E29F938F930E946413FE0131967E019C
:100F300081E1E80EF11C0F900F909E2E8F2E8FEF07
:100F40008193EE15FF05E1F700E010E0CC24C39497
:100F5000D12C90E1A92EB12C812F8065898B0A8B31
:100F60001B8A1C8ACD8ADE8A9F8A888EA98EBA8EB9
:100F70001B8E40E0B70180E894E09AD5892B49F0B8
:100F80008EED90E29F938F930E9464130F900F90C9
:100F90000BC0D2DD005F1F4F011584E01807E1F69A
:100FA00086EA91E20E9477136B96CDBFDEBFDF9198
:100FB000CF911F910F91FF90EF90DF90CF90BF9056
:100FC000AF909F908F900895EF92FF920F931F9391
:100FD000CF93DF9380EC91E20E9477138CE1E82EAF
:100FE00080E2F82EC0E0D0E00DEC11E2F701819133
:100FF0007F011F928F93DF93CF931F930F930E94D4
:10100000641321960F900F900F900F900F900F90F8
:10101000C038D10559F784E394E2DF91CF911F9155
:101020000F91FF90EF900C947713809157248F5F6E
:1010300080935724809167248F5F803409F484E083
:101040008093672440E167E574E28091672493CD43
:101050000F931F93CF93DF93CDB7DEB72997CDBF03
:10106000DEBF88E0809386068E010F5F1F4F89E008
:10107000F80111928A95E9F780E593ECA0E0B0E0E1
:1010800089839A83AB83BC8380E589878BE391E076
:10109000A0E0B0E08D839E83AF83B88760E483E0F7
:1010A00090E01ED1B80180E894E0EBD42996CDBF42
:1010B000DEBFDF91CF911F910F910895C9DF82EEBE
:1010C00091E29F938F930E94641380E8E6E2F2E23C
:1010D000ACE1B0E201900D928A95E1F786EA91E2E7
:1010E0000E9477138BDD0F900F908F3FC9F482E041
:1010F00092E20E94771360912E2070912F2080E061
:1011000090E00E94E21120E030E040E45FE30E94C2
:1011100048120E94B611609397207093982033C0B4
:101120002091592430915A24209393203093942075
:1011300020915B2430915C2420939520309396205D
:1011400020915D2430915E24209397203093982045
:10115000209163243091642420932E2030932F20FB
:1011600040915F24509160246091612470916224C9
:1011700040937C2050937D2060937E2070937F204D
:101180008F5F80340CF084E08093672408951F9271
:101190000F920FB60F9211248F93EF93FF938091CC
:1011A000C308809368248091682487FF0CC08091D5
:1011B0006824813831F481E0809343241092C3087D
:1011C0000AC08FEF06C0E0916824F0E0E45EFF4DB6
:1011D00080818093C308FF91EF918F910F900FBE94
:1011E0000F901F90189568E083E090E079D080E43C
:1011F0008093C00883E08093C1088091C20887FF74
:1012000003C08091C308F9CF8FEF8093C30808957E
:10121000E0ECF8E08181118208958093C10808957F
:1012200088E08093400680934506E0E2F6E094E093
:101230009183968381838583E0E8F6E091839683AA
:101240008183858340E050E060E180E496E06BD0EC
:1012500040E050E060E280E496E065D043E050E09A
:1012600060E480E496E05FD040E050E060E880E435
:1012700096E059C0CF93DF931F92CDB7DEB78FB7FB
:101280008983F89489810F90DF91CF9108958FEF32
:10129000809370008093710080937200809373003C
:1012A000809374008093750080937600E3DF9091C3
:1012B00050009260909350008FBF8091510081FF49
:1012C000FCCF61E080E490E0D8D6D4DF909150006C
:1012D0009E7F909350008FBF81E0809343000895DC
:1012E0000F931F93CF938C01C62FC4DFF801E059F1
:1012F000FF4FC0959081C923C0838FBFCF911F91AD
:101300000F9108951F93CF93DF93EC01162FB2DF57
:10131000FE01E059FF4F9081192B10838FBFDF91A1
:10132000CF911F910895CF93DF93FC01DC0180E002
:1013300090E0262F30E0E901082E02C0D595C79530
:101340000A94E2F7C0FF03C050965C935097019651
:1013500011968830910579F740FF07C041FF02C020
:10136000658301C06683618301C06283DF91CF9191
:101370000895CF93DF931F92CDB7DEB7809173248A
:1013800090917424E0916F24F0917024BE016F5FFE
:101390007F4F09958981082E000C990B0F90DF91E2
:1013A000CF910895682F8091732490917424E091D7
:1013B0007124F0917224099597FD03C081E090E0BB
:1013C00008958FEF9FEF0895CF93DF931F92CDB7CE
:1013D000DEB78FB78983F89489810F90DF91CF9121
:1013E00008950F931F93CF93DF938C01EB01ECDFF4
:1013F0000115124021F4C0937524D09376248FBF39
:10140000DF91CF911F910F9108958115924061F462
:101410008091442491E0980F90934424811104C05A
:1014200062E081E090E05CCF08958115924059F42C
:1014300080914424815080934424811104C062E04F
:1014400081E090E05FCF08951F93CF93DF93EC018D
:10145000BBDF182FCE01D9DF8881816088831FBF51
:1014600080916A248F3F09F4FFCFAEDF90916A2408
:101470009F5F90936A248FBFDF91CF911F91089552
:101480001F93CF93DF93EC019FDF182F88818E7F0E
:101490008883CE01CADF1FBF80916A24811101C0F9
:1014A000FFCF92DF90916A24915090936A248FBF6E
:1014B000DF91CF911F9108958115924029F481E029
:1014C00090914424911101C080E00895CF93DF935F
:1014D0001F92CDB7DEB78FB78983F89489810F90BB
:1014E000DF91CF9108951F920F920FB60F921124A2
:1014F0002F933F934F935F936F937F938F939F931C
:10150000AF93BF93EF93FF93409124025091250234
:10151000E0917524F091762461E080E092E00995F5
:10152000FF91EF91BF91AF919F918F917F916F91BB
:101530005F914F913F912F910F900FBE0F901F9091
:101540001895FF920F931F93CF93DF9381159240CD
:10155000A9F5EB0161E270E082E095D5082F10E07B
:1015600060E270E082E08FD5102F0027082BAEDFFD
:10157000F82E80E092E049DF80910002817092E0D5
:101580009093000200930C0210930D022C813D8178
:1015900020931802309319029981909302029B8143
:1015A000909304029A819093030298819093010290
:1015B0008093000280E092E038DFFFBEDF91CF91A0
:1015C0001F910F91FF900895FF920F931F93CF9358
:1015D000DF93EC018B017ADFF82ECE0116DF888DC8
:1015E000998DF801848395838A8181838C8183839B
:1015F0008B81828389818083CE0117DFFFBEDF91DB
:10160000CF911F910F91FF900895FF920F931F9319
:10161000CF93DF93EC018A0159DFF82ECE01F5DE7E
:10162000F801808188A382818AA3818189A3838133
:101630008EA3CE01FADEFFBEDF91CF911F910F91F5
:10164000FF900895FF920F931F93CF93DF93EC01C8
:101650008A013CDFF82ECE01D8DE88A1F801808314
:101660008AA1828389A181838EA18383CE01DDDE5D
:10167000FFBEDF91CF911F910F91FF900895809150
:10168000020482FB882780F991E08927089510924F
:1016900000042091010420FDFCCF609308047093A6
:1016A0000904809377249093782487E08093000442
:1016B00008950F931F93CF93DF931F92CDB7DEB79B
:1016C0008091010480FDFCCF8FB78983F894298134
:1016D0008091772490917824609108047091090496
:1016E0006115710521F43091030430FD01962FBF7F
:1016F000A0E0B0E0DC0199278827AB0160E070E052
:101700008C019D01042B152B262B372BC901B80109
:101710000F90DF91CF911F910F91089521E02093B9
:10172000020460930C0470930D0460937B24709307
:101730007C248093792490937A248091010480FD05
:10174000FCCF82E08093030485E080930204089537
:1017500080937D2490937E240895CF93DF931F92EE
:10176000CDB7DEB764E080E090E0BADD8FEF9FEFA9
:1017700080930A0490930B041092080410920904B9
:1017800080916C248F3F09F4FFCF8FB78983F89441
:10179000998180916C248F5F80936C249FBF81E03E
:1017A0008093020487E0809300040F90DF91CF9133
:1017B00008951F920F920FB60F9211248F939F934B
:1017C000EF93FF93E7E7F4E28081918101968083B4
:1017D0009183FF91EF919F918F910F900FBE0F908A
:1017E0001F9018951F920F920FB60F921124CF924F
:1017F000DF92EF92FF920F931F932F933F934F939C
:101800005F936F937F938F939F93AF93BF93EF9368
:10181000FF9340917724509178240091792410917E
:101820007A2440175107B8F181E080930204E091D7
:101830007D24F0917E24309771F18091080490917D
:10184000090460E070E0BA0155274427A0E0B0E049
:101850006A017B01C82AD92AEA2AFB2AC701B601F4
:1018600020E030E0980111270027C0907B24D09021
:101870007C24E12CF12C0C291D292E293F29061747
:1018800017072807390730F0C901B8016F5F7F4F8C
:101890008F4F9F4F0995FF91EF91BF91AF919F910E
:1018A0008F917F916F915F914F913F912F911F91F8
:1018B0000F91FF90EF90DF90CF900F900FBE0F90A1
:1018C0001F9018951F920F920FB60F9211242F930D
:1018D0003F934F935F936F937F938F939F93AF93B8
:1018E000BF93CF93DF93EF93FF93E0914524F09163
:1018F0004624848183FF07C08860848383E08383D8
:1019000086EF9FEF84C0982F947129F083E0838342
:101910008FEF9FEF7CC086FF41C0A0914724B0911C
:1019200048248091492490914A2414962D913C9109
:1019300015978217930764F49C012F5F3F4F209304
:10194000492430934A24A80FB91F11968C9122C0C4
:1019500080914B2490914C2418962D913C9119978D
:1019600082179307C8F420914D24222321F0868109
:101970008160868350C016962D913C911797AC01DB
:101980004F5F5F4F40934B2450934C24D901A80FD5
:10199000B91F8C9187833FC083E02CC087FF35C07F
:1019A000A0914724B091482480914B2490914C24DD
:1019B00018962D913C9119978217930708F5169662
:1019C0006D917C9117979C012F5F3F4F20934B2483
:1019D00030934C244781EB01C80FD91F48831896D8
:1019E0008D919C9119972817390718F482E0838309
:1019F00012C087E0838310924F24109250240BC0B2
:101A000083E0838389EF9FEF02C08BEF9FEF80938A
:101A10004F2490935024FF91EF91DF91CF91BF918C
:101A2000AF919F918F917F916F915F914F913F9176
:101A30002F910F900FBE0F901F9018951F920F922D
:101A40000FB60F9211242F933F934F935F936F9391
:101A50007F938F939F93AF93BF93EF93FF9332DF67
:101A6000FF91EF91BF91AF919F918F917F916F9176
:101A70005F914F913F912F910F900FBE0F901F904C
:101A80001895FC01DB0114968C91858388EB81838A
:101A900081E08483E5E4F4E2118612861386E0EAAD
:101AA000F0E0828182608283789480E090E0089503
:101AB000CF93DF931F92CDB7DEB7DC01FB01892BFB
:101AC00009F44CC0309709F449C0828590914E24A6
:101AD000992319F0811144C0FFCF8FB78983F894FF
:101AE000898191E090934E2420E83FEF20934F248A
:101AF000309350248FBFA0934524B0934624609325
:101B00004724709348241092492410924A2410923A
:101B10004B2410924C2440934D249081990F2481A2
:101B20003581232B11F44111916016969C9380917D
:101B30004F249091502480389F4FC9F3E091452461
:101B4000F091462484818370813009F0F7CF809131
:101B50004F249091502410924E2404C088EF01C06D
:101B600086EF9FEF0F90DF91CF910895009709F4D2
:101B700063C0811524E0920711F464E005C0803849
:101B800021E0920721F462E080E090E054C08038C8
:101B900023E0920711F461E005C0811522E092076D
:101BA00021F462E081E090E046C0811528E09207D0
:101BB00011F461E037C0811529E0920711F461E06A
:101BC00029C081152AE0920711F461E032C0803407
:101BD00028E0920711F462E025C0803928E09207DE
:101BE00011F464E01FC0803C28E0920711F468E023
:101BF00019C0803C29E0920711F468E00BC0803ADC
:101C000028E0920711F460E10DC0803A29E09207C4
:101C100021F460E184E090E00EC0803824E0920777
:101C200021F460E483E090E006C0803A944021F41F
:101C300060E485E090E054CB0895FC01218125FF0C
:101C4000FCCF608380E090E00895FC01218127FFB4
:101C5000FCCF80810895FC0166837F704295407FB0
:101C6000472B478308950F931F93DC01403885E28B
:101C700058076105710551F190F4403689E0580725
:101C800061057105F9F0403C82E158076105710575
:101C9000D9F0403B544061057105F1F41FC0411576
:101CA00086E958076105710599F0411581EE5807DD
:101CB0006105710579F041155B446105710561F4B9
:101CC00094E00DC091E00BC092E009C093E007C022
:101CD00095E005C096E003C09FEF01C090E000389A
:101CE00084E818078EE12807310539F4E92FF0E080
:101CF000EE0FFF1FE658FE4F0BC001151844284E8B
:101D0000314051F4E92FF0E0EE0FFF1FE459FE4F90
:101D100025913491832F02C020E080E09F3F29F07D
:101D200017962C93179716968C931F910F910895E1
:101D30008F929F92AF92BF92CF92DF92EF92FF92DB
:101D40000F931F93CF93DF93EC016A017B0148014E
:101D500059018C81B901A80182FF11C033E0769549
:101D60006795579547953A95D1F7D501C401E6E1B6
:101D7000B695A79597958795EA95D1F710C094E009
:101D800076956795579547959A95D1F7D901C801EA
:101D900027E1B695A795979587952A95D1F74C1584
:101DA0005D056E057F0508F495C0C816D906EA06DC
:101DB000FB0608F48FC08C8182FD04C0CC0CDD1CB6
:101DC000EE1CFF1CC501B401A70196015ED219EFFC
:101DD0008FEF90E0A0E0B0E0281739074A075B07D3
:101DE00058F0880F991FAA1FBB1F1D3F0CF481607C
:101DF0001F5F173089F748C017FF46C0D701C601DB
:101E0000F3E0880F991FAA1FBB1FFA95D1F7881A14
:101E1000990AAA0ABB0A812F012E000C990B1E3FBA
:101E2000DCF42DEF3FEFA901481B590B04C0880CCF
:101E3000991CAA1CBB1C4A95D2F7D701C601B695BE
:101E4000A79597958795BC01CD01680D791D8A1DD1
:101E50009B1DA701960116C00396A701960104C019
:101E6000220F331F441F551F8A95D2F7DA01C9018B
:101E7000B695A79597958795BC01CD01680D791DFD
:101E80008A1D9B1D02D21CC083E0810FA701960111
:101E900004C0220F331F441F551F8A95D2F7DA0161
:101EA000C901B695A79597958795BC01CD01680D99
:101EB000791D8A1D9B1DE9D1215031094109510924
:101EC000932F9F70812F8295807F892B8F832E8304
:101ED00081E001C080E0DF91CF911F910F91FF90D1
:101EE000EF90DF90CF90BF90AF909F908F9008952C
:101EF0000F931F93CF93DF93EC018B0137DE8D811E
:101F00008F738D83F80194818681982B8085811150
:101F100088E0892B8D83F801408151816281738132
:101F200000E018E428EE31E0CE0102DF9C819860E9
:101F30009C839C8190619C83DF91CF911F910F9135
:101F400008950F931F93CF93DF93EC01D901C8013C
:101F50003695279517950795401751076207730720
:101F600060F49A01AB01220F331F441F551FBC01BF
:101F7000CD018BD12150310902C020E030E0832F08
:101F80008F708F832E83DF91CF911F910F910895D2
:101F9000EF92FF920F931F93CF93DF931F92CDB7D2
:101FA000DEB77C018B01E2DDF70184818F7E8483C3
:101FB000F80184818250F0EAEF16F9E0FF0611F48F
:101FC000E9E101C0E1E1E695E695E69590E2E99F59
:101FD000F0011124FA5F92E09183823010F020E04A
:101FE00001C020E48FB78983F89439819189977073
:101FF000918B8189822B818B3FBF82E08583F701A2
:102000008581806C8583F80184818D7FF701813023
:1020100019F48581826002C085818D7F8583F801F6
:102020008581F701882319F08581846002C085814C
:102030008B7F8583F801408151816281738100E04B
:1020400018E428EE31E0C7017CDFF7018481886065
:1020500084838481806184830F90DF91CF911F916D
:102060000F91FF90EF900895CF93DF93EB01EDDD9B
:102070008883DF91CF910895E0CD1BBEFC0128ED50
:1020800024BF608308954091CA01E62FF72F809303
:10209000CA0184914093CA010895CF93DF93CDB7CD
:1020A000DEB72997CDBFDEBFF2D8BAD887E08093DC
:1020B000A20053DB80EA98E0809373249093742409
:1020C0008CE390E1809371249093722484E390E1F7
:1020D00080936F249093702483E090E08D839E839F
:1020E0001F821886198680E092ECA1E0B0E0898317
:1020F0009A83AB83BC8360E183E090E0F1D8BE01BA
:102100006F5F7F4F80EA98E0F3DE69EB79E082ED64
:1021100099E052D268D884E08093A200789486EA4D
:1021200092E2E5D21F928FE08F938CEC92E29F9324
:102130008F93CAD280EE92E2DAD20E946B040E94A0
:102140005E080E945D010E9408010F900F900F90A1
:102150000F90CC24C3940DE114E284E0F82E98E0B3
:10216000E92E8091A10887FF5DC080917F24909126
:1021700080246CD2843609F055C0C092512483E08B
:1021800093E2B5D286E293E2B2D289E493E2AFD28F
:1021900085E793E2ACD285E993E2A9D28FEB93E293
:1021A000A6D281EE93E2A3D281E094E2A0D2809104
:1021B00051248823B9F18091A10887FFFCCF809139
:1021C0007F249091802442D2813719F410925124B7
:1021D00029C0843619F40E94E407E9CF803719F446
:1021E0000E945E08E4CF853619F40E945B07DFCFBA
:1021F000843771F41F930F9367D2F0922706E09211
:102200002706F0928706E09287060F900F90CFCFB7
:10221000873719F40E941508CACF883741F60E9403
:102220007E07C5CF0E940809D82E809143248823B9
:1022300051F00E947E070E945E080E945D010E948C
:102240000801109243240E948D038D2D0E940D09D8
:102250002FEF87EA91E6215080409040E1F700C0DF
:1022600000007FCF97FB072E16F4009406D077FD71
:1022700008D068D007FC05D03EF4909581959F4F1B
:102280000895709561957F4F0895A1E21A2EAA1BBB
:10229000BB1BFD010DC0AA1FBB1FEE1FFF1FA21716
:1022A000B307E407F50720F0A21BB30BE40BF50B13
:1022B000661F771F881F991F1A9469F7609570959C
:1022C000809590959B01AC01BD01CF010895052E2D
:1022D00097FB16F400940FD057FD05D0D6DF07FC0E
:1022E00002D046F408C050954095309521953F4F57
:1022F0004F4F5F4F089590958095709561957F4FF2
:102300008F4F9F4F0895A29FB001B39FC001A39F1D
:10231000700D811D1124911DB29F700D811D11241E
:10232000911D0895F0DFB7FF0895821B930B089568
:10233000EADFA59F900DB49F900DA49F800D911D85
:1023400011240895AA1BBB1B51E107C0AA1FBB1F84
:10235000A617B70710F0A61BB70B881F991F5A9531
:10236000A9F780959095BC01CD01089570D088F0B3
:102370009F5790F0B92F9927B751A0F0D1F0660F71
:10238000771F881F991F1AF0BA95C9F712C0B1308C
:1023900081F077D0B1E0089574C0672F782F882737
:1023A000B85F39F0B93FCCF3869577956795B395CB
:1023B000D9F73EF490958095709561957F4F8F4F3A
:1023C0009F4F0895E89409C097FB3EF4909580953F
:1023D000709561957F4F8F4F9F4F9923A9F0F92FEB
:1023E00096E9BB279395F695879577956795B79569
:1023F000F111F8CFFAF4BB0F11F460FF1BC06F5F4F
:102400007F4F8F4F9F4F16C0882311F096E911C060
:10241000772321F09EE8872F762F05C0662371F081
:1024200096E8862F70E060E02AF09A95660F771F95
:10243000881FDAF7880F9695879597F9089557FDC5
:102440009058440F551F59F05F3F71F04795880F22
:1024500097FB991F61F09F3F79F0879508951216B9
:1024600013061406551FF2CF4695F1DF08C0161665
:1024700017061806991FF1CF869571056105089416
:102480000895E894BB2766277727CB0197F908952D
:102490000BD078C069D028F06ED018F0952309F0E1
:1024A0005AC05FC01124EECFCADFA0F3959FD1F3CD
:1024B000950F50E0551F629FF001729FBB27F00DF2
:1024C000B11D639FAA27F00DB11DAA1F649F662747
:1024D000B00DA11D661F829F2227B00DA11D621F96
:1024E000739FB00DA11D621F839FA00D611D221F50
:1024F000749F3327A00D611D231F849F600D211D34
:10250000822F762F6A2F11249F5750408AF0E1F0D6
:1025100088234AF0EE0FFF1FBB1F661F771F881F1F
:1025200091505040A9F79E3F510570F014C0AACFBA
:102530005F3FECF3983EDCF3869577956795B7950A
:10254000F795E7959F5FC1F7FE2B880F911D969534
:10255000879597F9089597F99F6780E870E060E0A4
:1025600008959FEF80EC089500240A94161617062C
:1025700018060906089500240A9412161306140674
:1025800005060895092E0394000C11F4882352F0D7
:10259000BB0F40F4BF2B11F460FF04C06F5F7F4F8F
:1025A0008F4F9F4F0895FB01DC0102C001900D92F7
:1025B00041505040D8F708950F931F93CF93DF9366
:1025C000009731F46115710519F480E090E039C08D
:1025D0008B01EC016EE070E081E090E08AD2FC01BA
:1025E000892B99F380E883830115110571F0028727
:1025F000138781E8838380917F2490918024892BA5
:1026000021F4E0937F24F09380242097C9F0C087C1
:10261000D1878381826083838091812490918224F9
:10262000892B71F4E0938124F09382248091832498
:1026300090918424892B21F4E0938324F0938424C3
:10264000CF01DF91CF911F910F910895CF93DF9329
:10265000EC012B8120FF33C026FF0AC02F7B2B8388
:102660008E819F8101968E839F838A8190E029C00D
:1026700022FF0FC0E881F9818081082E000C990BA0
:10268000009719F420622B831AC03196E883F983EE
:102690000EC0EA85FB85099597FF09C02B8101963D
:1026A00011F080E201C080E1822B8B8308C02E8173
:1026B0003F812F5F3F4F2E833F83992702C08FEFCB
:1026C0009FEFDF91CF910895A0E0B0E0E9E6F3E15C
:1026D00012C4AE014B5F5F4FFA0161917191AF017E
:1026E000809181249091822432D0E2E01DC40F9326
:1026F0001F93CF93DF93E0918124F0918224238173
:1027000021FF1BC08C01D0E0C0E0F80181918F0156
:102710006091812470918224DB011896ED91FC91E7
:102720001997882331F00995892B79F3DFEFCFEFE3
:10273000ECCF8AE00995892B19F08FEF9FEF02C04B
:102740008D2F9C2FDF91CF911F910F910895ABE0BA
:10275000B0E0ECEAF3E1BFC36C017B018A01FC014C
:1027600016821782838181FFBFC1CE0101963C0191
:10277000F6019381F70193FD859193FF81917F018C
:10278000882309F4ADC1853239F493FD859193FF17
:1027900081917F01853221F4B60190E002D3E8CF28
:1027A000912C212C312CFFE1F315D8F08B3279F0EC
:1027B00038F4803279F08332A1F4232D20611DC0DA
:1027C0008D3261F0803369F4232D216016C0832D92
:1027D0008260382EE32DE4603E2E2AC0F32DF8608F
:1027E0001DC037FC2DC020ED280F2A3040F08E325E
:1027F000B9F436FC75C1232D2064322E19C036FE83
:1028000006C08AE0989E200D1124922E11C0EAE0A5
:102810002E9E200D1124222EF32DF0623F2E08C093
:102820008C3621F4832D8068382E02C0883641F41E
:10283000F70193FD859193FF81917F018111B3CFC2
:10284000982F9F7D9554933028F40C5F1F4F9FE382
:1028500099830DC0833631F0833771F0833509F0E9
:1028600055C020C0F801808189830E5F1F4F8824E6
:102870008394912C530112C02801F2E04F0E511C99
:10288000F801A080B18036FE03C0692D70E002C05F
:102890006FEF7FEFC5017AD24C018201F32DFF77F4
:1028A0003F2E15C0280122E0420E511CF801A080E5
:1028B000B18036FE03C0692D70E002C06FEF7FEF7C
:1028C000C50152D24C01F32DF0683F2E820133FC3A
:1028D00019C0822D90E088169906A0F4B60180E216
:1028E00090E05FD22A94F5CFF50137FC859137FE51
:1028F00081915F01B60190E054D221102A9421E029
:10290000821A91088114910479F7E1C0843611F09C
:10291000893639F5F80137FE07C0608171818281FF
:1029200093810C5F1F4F08C060817181072E000CDE
:10293000880B990B0E5F1F4FF32DFF763F2E97FFED
:1029400009C090958095709561957F4F8F4F9F4FEF
:10295000F0683F2E2AE030E0A3015FD2882E86186F
:1029600044C0853731F4232D2F7EB22E2AE030E08B
:1029700025C0932D997FB92E8F36C1F018F4883574
:1029800079F0AEC0803719F0883721F0A9C0E92F5F
:10299000E061BE2EB4FE0DC0FB2DF460BF2E09C059
:1029A00034FE0AC0292F2660B22E06C028E030E08F
:1029B00005C020E130E002C020E132E0F801B7FEBE
:1029C00007C060817181828193810C5F1F4F06C0B7
:1029D0006081718180E090E00E5F1F4FA3011DD2E6
:1029E000882E8618FB2DFF773F2E36FE0DC0232D37
:1029F0002E7FA22E891458F434FE0BC032FC09C07D
:102A0000832D8E7EA82E05C0B82CA32C03C0B82C15
:102A100001C0B92CA4FE0FC0FE01E80DF11D80819C
:102A2000803321F49A2D997EA92E09C0A2FE06C0FA
:102A3000B394B39404C08A2D867809F0B394A3FCB0
:102A400010C0A0FE06C0B21480F4280C922C9B1873
:102A50000DC0B21458F4B60180E290E0A2D1B39454
:102A6000F8CFB21418F42B1802C0982C212CA4FE15
:102A70000FC0B60180E390E094D1A2FE16C0A1FC85
:102A800003C088E790E002C088E590E0B6010CC082
:102A90008A2D867851F0A1FE02C08BE201C080E24F
:102AA000A7FC8DE2B60190E07CD1891430F4B60128
:102AB00080E390E076D19A94F8CF8A94F301E80D00
:102AC000F11D8081B60190E06CD18110F6CF2220FB
:102AD00009F44ECEB60180E290E063D12A94F7CF9C
:102AE000F6018681978102C08FEF9FEF2B96E2E17E
:102AF0000BC20F931F93CF93DF93869F8001879F15
:102B0000100D969F100D1124C8010DD0EC010097F7
:102B100021F0A80160E070E032D1CE01DF91CF91C9
:102B20001F910F9108950F931F93CF93DF938230DE
:102B3000910510F482E090E0E0918724F0918824E0
:102B400020E030E0A0E0B0E0309719F14081518101
:102B50000281138148175907C8F08417950769F453
:102B6000109731F012960C93129713961C9327C06E
:102B7000009387241093882422C02115310519F071
:102B80004217530718F49A01BD01EF01DF01F80164
:102B9000DBCF21153105F9F0281B390B2430310525
:102BA00080F48A819B816115710521F0FB0182838C
:102BB000938304C08093872490938824FE013296E7
:102BC00044C0FE01E20FF31F81939193225031091B
:102BD000288339833AC02091852430918624232B81
:102BE00041F42091022030910320209385243093DA
:102BF000862420910020309101202115310541F4D7
:102C00002DB73EB74091042050910520241B350B71
:102C1000E0918524F0918624E217F307A0F42E1B9F
:102C20003F0B2817390778F0AC014E5F5F4F241730
:102C3000350748F04E0F5F1F40938524509386243C
:102C40008193919302C0E0E0F0E0CF01DF91CF915A
:102C50001F910F910895CF93DF93009709F481C0DE
:102C6000FC01329712821382A0918724B0918824AC
:102C7000109781F420813181820F931F2091852448
:102C8000309186242817390751F5E0938524F09375
:102C9000862467C0ED0120E030E0CE17DF0740F466
:102CA0004A815B819E0141155105F1F0EA01F5CFA2
:102CB000C283D38340815181840F951FC817D907E0
:102CC00059F488819981840F951F0296808391839E
:102CD0008A819B81828393832115310529F4E093B6
:102CE0008724F09388243DC0E901EA83FB8349915E
:102CF0005991C40FD51FEC17FD0761F480819181B4
:102D0000840F951F0296E9018883998382819381BC
:102D10008A839B83E0E0F0E012968D919C9113975B
:102D2000009719F0FD01DC01F7CF8D919C9111976F
:102D30009D012E5F3F4F820F931F2091852430917C
:102D400086242817390769F4309729F410928724CC
:102D50001092882402C012821382A0938524B0931B
:102D60008624DF91CF910895FC0105906150704059
:102D70000110D8F7809590958E0F9F1F0895DC0164
:102D800001C06D9341505040E0F70895FC0161503F
:102D9000704001900110D8F7809590958E0F9F1F7D
:102DA00008950F931F93CF93DF93FB01238121FDA0
:102DB00003C08FEF9FEF2CC022FF16C046815781C2
:102DC000248135814217530744F4A081B1819D01CC
:102DD0002F5F3F4F208331838C93268137812F5F74
:102DE0003F4F2683378314C08B01EC01FB01008425
:102DF000F185E02D0995892BE1F6D80116968D9184
:102E00009C911797019616968D939C931797CE01D8
:102E1000DF91CF911F910F910895FA01AA272830D1
:102E200051F1203181F1E8946F936E7F6E5F7F4F97
:102E30008F4F9F4FAF4FB1E03ED0B4E03CD0670F13
:102E4000781F891F9A1FA11D680F791F8A1F911D66
:102E5000A11D6A0F711D811D911DA11D20D009F4B6
:102E600068943F912AE0269F11243019305D3193F8
:102E7000DEF6CF010895462F4770405D4193B3E0E1
:102E80000FD0C9F7F6CF462F4F70405D4A3318F088
:102E9000495D31FD4052419302D0A9F7EACFB4E039
:102EA000A6959795879577956795BA95C9F70097F1
:102EB0006105710508959B01AC010A2E0694579592
:102EC000479537952795BA95C9F7620F731F841FE9
:102ED000951FA01D08952F923F924F925F926F927F
:102EE0007F928F929F92AF92BF92CF92DF92EF929A
:102EF000FF920F931F93CF93DF93CDB7DEB7CA1B1B
:102F0000DB0BCDBFDEBF09942A88398848885F84EF
:102F10006E847D848C849B84AA84B984C884DF8079
:102F2000EE80FD800C811B81AA81B981CE0FD11D5D
:0C2F3000CDBFDEBFED010895F894FFCF87
:102F3C000000892420008000A7204000B32020003E
:102F4C00BF201000CD200000B6205324000000004C
:102F5C000000000000006810740EBC023C00F41A63
:102F6C00000000000000000000000000546F6279B7
:102F7C0020436875726368696C6C000031383635B3
:102F8C003520317332700000000000004C494F4E68
:102F9C000000000000000000000000000000000025
:102FAC000000000000000000000000000000000015
:102FBC000000000000000000000000000000000005
:102FCC0000000000000000000000000050000000A5
:102FDC00010000000000004E4F545F505245534515
:102FEC004E54004449534348415247494E470046CA
:102FFC00554C4C595F434841524745440046554C4B
:10300C004C595F444953434841524745440045524B
:10301C00524F523A204661696C656420746F207778
:10302C007269746520454550524F4D004552524FC0
:10303C00523A204661696C656420746F2072656138
:10304C006420454550524F4D0D004552524F523A57
:10305C0020496E76616C69642063686B73756D20B2
:10306C00696E20454550524F4D20696E206C6F6340
:10307C006174696F6E2025643A20307825782021A0
:10308C003D20307825780D0A004552524F523A2097
:10309C00417474656D7074656420746F2077726907
:1030AC007465206265796F6E64206D656D6F7279E1
:1030BC00206D617020656E640D0045726173696EE0
:1030CC006720616C6C206D656D6F7279206D61701D
:1030DC00202E2E2E2000646F6E650D0045726173DC
:1030EC00696E6720454550524F4D202E2E2E2000E4
:1030FC004D656D6F7279204D61703A0D007B2030FB
:10310C0078253032782C20307825303278207D2C80
:10311C00200050726F6772616D6D696E6720646517
:10312C006661756C742076616C756573202E2E2E1D
:10313C0020004E6F20646174612C206275696C6490
:10314C00696E672064656661756C74207365747450
:10315C00696E67730D0000000000000000000000A5
:10316C006810740EBC023C00F41A00000000000051
:10317C00000000000000546F627920436875726390
:10318C0068696C6C0000313836353520317332701B
:10319C000000000000004C494F4E000000000000F1
:1031AC000000000000000000000000000000000013
:1031BC000000000000000000000000000000000003
:1031CC0000000000000000000000000000000000F3
:1031DC000000000000000C0A0D2D2D2054434C2043
:1031EC004261747465727920436F756C6F6D6220E7
:1031FC00436F756E746572202D2D0D002D2D20568C
:10320C00657273696F6E3A202564202D2D0D0A00AE
:10321C000D0A50726573732027642720746F206524
:10322C006E74657220696E2074657374206D6F64A2
:10323C00650D000A0D57656C636F6D6520746F200A
:10324C007468652074657374206D6F64652E2050EE
:10325C00726573730D00202D206B65792027712703
:10326C0020746F20657869742066726F6D207465A8
:10327C007374206D6F64650D00202D206B657920B3
:10328C0027642720746F2064756D70207468652026
:10329C004D656D6F7279204D617020636F6E746532
:1032AC006E74730D00202D206B6579202765272007
:1032BC00746F206572617365204D656D6F72792036
:1032CC004D61700D00202D206B6579202770272013
:1032DC00746F2070726F6772616D206465666175C2
:1032EC006C74204D656D6F7279204D61700D0020EE
:1032FC002D206B65792027742720746F20746F67DD
:10330C00676C65206F75747075742070696E730DC1
:10331C0000202D206B65792027772720746F207370
:10332C00746F7265204D656D6F7279204D61700DF3
:10333C0000202D206B65792027782720746F20635F
:10334C006C65617220454550524F4D0D00546F67AE
:10335C00676C6520616C6C206F757470757420706F
:06336C00696E730A0D00FA
:00000001FF
